:0200000480007A
:10000000B7000080678080007350403073504034E8
:100010009300000013010000930100001302000090
:100020009302000013030000930300001304000078
:100030009304000013050000930500001306000060
:100040009306000013070000930700001308000048
:10005000930800001309000093090000130A000030
:10006000930A0000130B0000930B0000130C000018
:10007000930C0000130D0000930D0000130E000000
:10008000930E0000130F0000930F00009711000063
:10009000938101B6732640F1B702000093820200FB
:1000A00063F4C2006F00403117210000130181F595
:1000B000B712000093820280630C0600130306004F
:1000C00093830200B38272001303F3FFE31C03FE69
:1000D00033015140330401006F004000130101FF60
:1000E0002326110097000000E7804026630E0504D8
:1000F00097000000E7804025370500801305053F85
:10010000B70500809385C53E63F8A50023A00500D0
:1001100093854500E3ECA5FE370500801305C53E39
:10012000B70500809385C53E63F0A50237060080C1
:100130001306C63E8326060023A0D50093854500FE
:1001400013064600E3E8A5FE97000000E7800026BE
:1001500097000000E7808012731000C0130101FCBB
:100160002320110023225100232461002326710043
:100170002328C101232AD101232CE101232EF101DF
:100180002320A1022322B1022324C1022326D1026B
:100190002328E102232AF102232C0103232E110339
:1001A00033050100EF00C0048320010083224100D9
:1001B000032381008323C100032E0101832E41010B
:1001C000032F8101832FC1010325010283254102F1
:1001D000032681028326C1020327010383274103EB
:1001E000032881038328C103130101047300203015
:1001F000130101FF232611002324810013040500AD
:1002000097000000E780001A9305F0FF63DEA50069
:1002100013050400032481008320C10013010101A0
:10022000170300006700C311B70500809385F5FF31
:100230003375B5009305C0006376B502B70500803D
:100240009385C53B131525003305B50083270500AD
:10025000638A0700032481008320C1001301010188
:1002600067800700032481008320C100130101017E
:10027000170300006700030D130101FF232611007F
:10028000232481002322910097000000E7800010C2
:10029000130405001305800097000000E78000109C
:1002A000370500808345C53E93041000638805022E
:1002B00013758400631E050263940404370500F07F
:1002C0009305F00F2324B5009305100013D6050104
:1002D0002322C500938515006FF05FFF9304000093
:1002E000930510002306B53E13758400E30605FC54
:1002F0001305800097000000E780C009E38004FC3C
:1003000097000000E780C000731000C0130101FFD8
:100310002326110097000000E780C000731000C082
:10032000130101FF2326110097000000E780C000A1
:10033000731000C00F0030036F0000006F0000005A
:100340006F00000067800000130101FF23261100E9
:1003500097000000E7800003630805009700000095
:10036000E780C0016FF09FFF130510008320C100DC
:1003700013010101678000007300501067800000C6
:10038000732540F16780000073250030678000000E
:1003900073200530678000007330053067800000EF
:1003A000732520346780000097020000938242DBAF
:0C03B00073905230678000006F00000066
:1003BC0040030080400300800000000040030080E8
:1003CC0040030080400300800000000040030080D8
:1003DC0040030080400300800000000040030080C8
:040000058000000077
:00000001FF
